:03000000020008F3
:03007C000200037C
:0500030012012D80FE3A
:08007F00AA82AB837C007D0026
:0E008700C3EC9AED9B50070CBC00F50D80F207
:010095002248
:06009600120368020B9644
:07009C0075080375090A75E0
:0600A3000A0A750B00754E
:0A00A9000C057A007B307C007530F6
:0A00B3000075311D75320F758200D3
:0E00BD00C002C003C004120C0B120B5DD00475
:0400CB00D003D0028C
:0D00CF008A828B838CF0C002C003C0041233
:0600DC0008CB85822C9088
:0E00E200000875F04012084CAD82D004D00327
:0E00F000D002BD020FC002C003C004120B5D9F
:0600FE00D004D003D00283
:0E010400904E20C002C003C00412007FD00441
:0A011200D003D0027401B50BB475E0
:03011C00372F7505
:03011F0038107520
:090122003980753607758203026D
:02012B000D25A0
:06012D0012009612009C76
:0201330080FE4C
:0E102F00204C652073657270656E74206573C9
:08103D0074206D6F7274200035
:06006100750D00750E2074
:0A013500850D82850E83A3E0FA53C6
:06013F000203BA03F122E5
:0C014500AA82C002120135D002850D8292
:07015100850E83A3EAF022F2
:0B015800AA82C002120135850D8285CD
:060163000E83E50FF0120F
:080169000135D002850D8285ED
:060171000E83A3EAF02258
:0B017700AA82C002120135850D8285AE
:060182000E83E510F012EF
:060188000135850D8285A2
:06018E000E83E511F012E2
:080194000135D002850D8285C2
:06019C000E83A3EAF0222D
:0A01A200AA82C002120135AB0DACB9
:0A01AC000EAD128B828C83EDF01271
:0501B6000135AB0DACAA
:0801BB000E90001375F04012D4
:0D01C3000FD98B828C83F0120135D002859C
:0901D0000D82850E83A3EAF022E2
:0A01D90085821285831375822412BB
:0401E30001A28514DC
:0701E7000F7582C0020158F0
:0A01EE0085821285831375822412A6
:0901F80001A27582C112014585C6
:090201000D82850E83E0F58222D6
:0A020A00850D82850E83A3E0FA53F0
:060214000208BA08F12205
:0A021A00AA82AB838A128B1375824F
:0E02240024C002C0031201A27582B01201456F
:09023200D003D002E4F51AF51B1B
:06023B00C3E51A9518E569
:0A0241001B951950390ABA00010B91
:0C024B00C002C00312020AD003D002AEB1
:040257000DAF0EE5F4
:05025B001A2515F8E56D
:050260001B3516F9AC8E
:0C02650017888289838CF0120FD9F88E64
:0A027100828F83F0051AE4B51AC06D
:04027B00051B80BC23
:0E027F007582B2C002C003120145D003D00246
:05028D008A828B832230
:0A029200AA82AB838A128B137582D7
:0E029C0024C002C0031201A27582B0120145F7
:0802AA00D003D0027C007D00AE
:0A02B200C3EC951DED951E50280ABF
:0402BC00BA00010B78
:0E02C000C002C003C004C00512020AD005D05F
:0A02CE0004D003D002850D82850ED6
:0B02D80083E51CF00CBC00D20D80CFB1
:0E02E3007582B2C002C003120145D003D002E2
:0502F1008A828B8322CC
:0C02F600AA82E53F75F01EA4FBACF07D71
:0A03020000EA2BF582ED3CF58322A2
:04030C00851F3F12F8
:0403100002F685204C
:04031400140201D9F5
:0403180085213F12EA
:05031C0002F60201EEF3
:09032100E4F512F5137582401297
:06032A0001A2751200752E
:0903300013027582421201A2754C
:09033900100375110075822212F7
:06034200017775101E7525
:0903480011007582411201777564
:09035100101E75110075824312A3
:0C035A00017775829C12014575828002BB
:0203660001454F
:05006700E4F522F52381
:030368000203216C
:0C036B00AA827B00E53F75F01EA42AF575
:0703770022EB35F0F5232213
:07037E00AA82BAE0028078B8
:05038500BAE9028059F5
:05038A00BA09028047E2
:05038F00BA0A0280071C
:05039400BA0D0280100B
:02039900807C66
:08039B00741E2522F522E43551
:0403A30023F5230219
:0203A70004311F
:0703A900753F1E7540008541
:0803B0002282852383C00212A2
:0703B8000E5C8582228583A3
:0303BF0023852271
:0303C2003F852351
:0903C5004090001E120EE9858231
:0803CE0022858323D002805B2D
:0803D60074032522F522E43531
:0503DE0023F523804E11
:0703E30085228285238305BA
:0603EA0022E4B522020529
:0103F00023E9
:0C03F100751462C0021201D9D0028034E1
:0703FD0085228285238305A0
:0604040022E4B52202050E
:01040A0023CE
:0C040B00751465C0021201D9D002801ADD
:070417008522828523830585
:06041E0022E4B5220205F4
:0104240023B4
:0C042500EA24E0F514C0021201D9D00254
:030431008A82229A
:06006C007524007525005B
:0A043400AA82E5242400F582E434D6
:08043E0000F583EAF005242219
:08044600E5252400F582E434F1
:0A044E0000F583E0FA05258A8222FA
:070458007524007525002248
:0E045F00AA82AB83ACF074012AFDE43BFE8C54
:0E046D00078D828E838FF0120FD9F582C002A8
:0E047B00C003C004120434D004D003D00274B5
:0C048900012AFDE43BFE8C0774012DF5F8
:0604950026E43EF5278F6E
:05049B00288526828582
:0604A00027838528F012FD
:0E04A6000FD9F582C002C003C004C005C00615
:0E04B400C007120434D007D006D005D004D003
:0E04C20003D0028A828B838CF0120FD9FA7459
:0404D00003B502006E
:0304D400500122B2
:0704D700EA2A2A9004DE73FB
:0704DE000204EA0205050219
:0504E5000520020535B1
:0704EA00852682852783852A
:0804F10028F0120FD9FA1A8558
:0604F900268285278385A1
:0604FF0028F0EA020ED015
:07050500852682852783850E
:08050C0028F0120FD9FA0A854C
:0605140026828527838585
:06051A0028F0EA020ED0F9
:0E0520008D828E838FF0120FD9FA1A8D828E83
:07052E00838FF0EA020ED0FA
:0E0535008D828E838FF0120FD9FA0A8D828E7E
:07054300838FF0EA020ED0E5
:0E054A00AA82AB83ACF074012AFDE43BFE8C68
:0E055800078D828E838FF0120FD9FD74012A59
:0C056600FEE43BFF8C0074012EF529E43C
:060572003FF52A882B85ED
:060578002982852A83851B
:06057E002BF0120FD9F56D
:0C058400218D82C002C003C004C006C06C
:0E05900007C000120318AD82D000D007D006BD
:0D059E00D004D003D0028E828F8388F0122B
:0805AB000FD9FE700302066087
:0705B300852982852A83855A
:0905BA002BF0120FD9FF700302AF
:0205C3000660D0
:0305C500BE1D0058
:0505C800400302066083
:0305CD00BF0F005D
:0505D00040030206607B
:0505D500BD9102802B26
:0505DA00BD9502803A0E
:0505DF00BDA102802116
:0505E400BDA202801C15
:0505E900BDA302801714
:0505EE00BDA402801213
:0505F300BDA502800D12
:0505F800BDA602800811
:0505FD00BDA702800310
:03060200BDA84848
:0E06050074032AFDE43BFE8C078D828E838FEA
:06061300F07401020ED09C
:0E06190074032AFDE43BFE8C078D828E838FD6
:0E062700F07402120ED074042AFDE43BFE8C27
:0E063500078D828E838FF0120FD9F808080807
:0A0643008D828E838FF0E8020ED046
:0E064D0074032AFDE43BFE8C078D828E838FA2
:05065B00F0E4020ED0E6
:0E06600074032AFAE43BFB8A828B838CF074CD
:04066E0001020ED0A7
:0E067200AA82AB83ACF074032AFDE43BFE8C3D
:0E068000078D828E838FF0120FD9FDBD0134DD
:0E068E0074012AFDE43BFE8C078D828E838F63
:0E069C00F0120FD9FD74012AFEE43BFF8C0022
:0506AA000EBE00010F6F
:0C06AF008E828F8388F0120FD9F51F7522
:0706BB0020948D8202030C64
:0E06C20074012AFDE43BFE8C078D828E838F2F
:0A06D000F0120FD9FD0ABA00010B69
:0506DA000ABA00010B4B
:0C06DF008A828B838CF0120FD9F51F75F6
:0706EB0020938D8202030C35
:0E06F200AA82AB83ACF074032AFDE43BFE8CBD
:0E070000078D828E838FF0120FD9FDBD02424D
:0E070E0074012AFDE43BFE8C078D828E838FE2
:0E071C00F0120FD9FD74012AFEE43BFF8C00A1
:05072A000EBE00010FEE
:0C072F008E828F8388F0120FD9F51F75A1
:0B073B0020928D82C002C003C0041297
:0A074600030CD004D003D002804061
:0E07500074012AFDE43BFE8C078D828E838FA0
:0E075E00F0120FD9FD74012AFEE43BFF8C005F
:05076C000EBE00010FAC
:0C0771008E828F8388F0120FD9F51F755F
:0B077D0020918D82C002C003C0041256
:08078800030CD004D003D002E1
:0E07900074042AFAE43BFB8A828B838CF012FD
:0D079E000FD9FD7017120446AE82C006127E
:0807AB00044685821FD006758B
:0707B30020008E8202030CFE
:0B07BA001D8A828B838CF0ED020ED0B4
:0C07C500AA82AB83ACF07401B53F028047
:0107D1001512
:0707D2007402B53F0280260E
:0707D9007403B53F028039F3
:0707E0007404B53F66804B75
:0E07E7008A828B838CF0120FD9FDBD01012296
:0A07F5008A828B838CF0E4020ED0A0
:0E07FF008A828B838CF0120FD9FD7E004E6033
:0C080D003D8A828B838CF07401020ED0B7
:0E0819008A828B838CF0120FD9FDBD03012261
:0B0827008A828B838CF07402020ED0DA
:0E0832008A828B838CF0120FD9FDBD02012249
:0B0840008A828B838CF07403020ED0C0
:01084B00228A
:0D084C00AA82AB83ACF0C002C003C004124E
:0A08590006F2D004D003D002852C73
:0C0863003F8A828B838CF0C002C003C06F
:0E086F00041207C5D004D003D0028A828B8306
:0E087D008CF0C002C003C00412045FD004D08F
:0E088B0003D0028A828B838CF0C002C003C0AF
:0E0899000412054AD004D003D0028A828B8359
:0E08A7008CF0C002C003C004120672D004D050
:0E08B50003D00274032AFAE43BFB8A828B8391
:0808C3008CF0120FD9F582221E
:0E08CB00AA82AB83ACF0120FD9FDBDFD047DF7
:0308D90001803B60
:0E08DC0074012AFEE43BFF8C008E828F83881D
:0C08EA00F0120FD9FEBEFE047D03802139
:0708F600BEFB047D04801A23
:0E08FD0074022AFAE43BFB8A828B838CF01291
:0A090B000FD9FABAFD047D02800244
:020915007D0063
:030917008D8222AC
:0E091A00AA82AB83ACF0120FD9FD74012AFE45
:0E092800E43BFF8C008E828F8388F0120FD983
:0C093600F5218D82C002C003C004C00681
:0E094200C007C000120318E582D000D007D015
:0E09500006D004D003D002701D8A828B838CE7
:0E095E00F0120FD9FD8E828F8388F0120FD910
:08096C00F51F7520958D820234
:02097400030C72
:0E0976008A828B838CF0120FD9FD1D8E828F2A
:0C0984008388F0120FD9F5218D82C0028B
:0E099000C003C004C006C007C000120318E573
:0E099E0082D000D007D006D004D003D0027063
:0E09AC00188A828B838CF0120FD9FD1D8A826F
:0B09BA008B838CF0ED120ED0020AF3CC
:0E09C5008A828B838CF0120FD9FD0D8E828FEB
:0C09D3008388F0120FD9F5218D82C0023C
:0E09DF00C003C004C006C007C000120318E524
:0E09ED0082D000D007D006D004D003D0027014
:0E09FB00188A828B838CF0120FD9FD0D8A8230
:0B0A09008B838CF0ED120ED0020AF37C
:0E0A14008A828B838CF0120FD9FD8E828F8325
:0C0A220088F0120FD904F5218D82C0026B
:0E0A2E00C003C004C006C007C000120318E5D4
:0E0A3C0082D000D007D006D004D003D00270C4
:0E0A4A00188E828F8388F0120FD9FD0D8E82D8
:0B0A58008F8388F0ED120ED0020AF32D
:0E0A63008A828B838CF0120FD9FD8E828F83D6
:0C0A710088F0120FD914F5218D82C0020C
:0E0A7D00C003C004C006C007C000120318E585
:0E0A8B0082D000D007D006D004D003D0027075
:0E0A9900178E828F8388F0120FD9FD1D8E827A
:0A0AA7008F8388F0ED120ED080421C
:0E0AB1008A828B838CF0C002C003C004C00692
:0E0ABF00C007C000120B10D000D007D006D028
:0E0ACD0004D003D0028A828B838CF0C002C05A
:0E0ADB0003C004C006C007C00012091AD000F4
:0A0AE900D007D006D004D003D002DD
:0E0AF3008A828B838CF0120FD9FA8E828F8349
:080B010088F0120FD9F51F75F1
:070B090020958A8202030C13
:0D0B1000AA82AB83ACF0C002C003C0041287
:060B1D000E85753F1D75F9
:0A0B23004000120FF5AD82C005126C
:060B2D000E85753F0F75F7
:0C0B33004000120FF5AE82AF83D005D059
:0D0B3F0004D003D0028A828B838CF0ED126B
:070B4C000ED00ABA00010BF4
:0A0B53008A828B838CF0EE020ED034
:0A0B5D0090002D75F040120B10906F
:080B6700002D75F04002091A8F
:0C0B6F00E58275F008A4FAABF08A158B43
:050B7B0016751700E5EE
:0C0B80002F75F008A4F582741825F0F51C
:080B8C008375180875190002B9
:020B9400021A43
:0A0B9600752FA1758200120B6F7518
:090BA0002FA2758201120B6F7582
:090BA9002FA3758202120B6F7577
:090BB2002FA4758203120B6F756C
:090BBB002FA5758204120B6F7561
:090BC4002FA6758205120B6F7556
:090BCD002FA7758206120B6F754B
:090BD6002FA8758207120B6F7540
:090BDF002F91758208120B6F754D
:090BE8002F92758209120B6F7542
:090BF1002F9375820A120B6F7537
:090BFA002F9475820B120B6F752C
:080C03002F9575820C020B6FA6
:040C0B00AA828A032C
:050C0F00E531B5030012
:0A0C1400404BEBB5021585301F754B
:0C0C1E0020A18A82C002C00312030CD087
:050C2A0003D002802F41
:040C2F00EBB53100F0
:060C3300501585301F750D
:0C0C390020A28B82C002C00312030CD06A
:050C450003D002801441
:040C4A0085301F755D
:0A0C4E0020A3853182C002C003120A
:060C5800030CD003D002E2
:030C5E000B80AE5A
:020C61008A0304
:050C6300E531B50300BE
:0A0C6800404BEBB5021585321F75F5
:0C0C720020A68A82C002C00312030CD02E
:050C7E0003D002802FED
:040C8300EBB531009C
:060C8700501585321F75B7
:0C0C8D0020A78B82C002C00312030CD011
:050C990003D0028014ED
:040C9E0085321F7507
:0A0CA20020A8853182C002C00312B1
:060CAC00030CD003D0028E
:030CB2000B80AE06
:040CB500E53004FB27
:090CB900AC327D001CBCFF011DE2
:0E0CC2008B067F00C3EC9EED64808FF063F024
:0A0CD0008095F040248B1F7520A4CE
:0C0CDA008A82C002C00312030CD0038BFE
:050CE6001F7520A5852B
:0C0CEB003182C00312030CD003D0020BB6
:020CF70080C0BB
:010CF90022D8
:020CFA00AA82CC
:050CFC00E534B5020023
:040D01004021AB33AF
:050D0500E535B5030017
:0A0D0A0040158B1F7520008A82C07F
:0D0D140002C00312030CD003D0020B80E4D8
:030D21000A80D86D
:010D240022AC
:090D2500AA828537828538838596
:0C0D2E0039F0C002120FC1AB82D002EB02
:070D3A00F53A2A04FC7D00DC
:030D4100BD0300EF
:050D44004003020DE474
:070D4900ED702C85361F75CB
:0B0D500020A18A82C002C004C005126E
:080D5B00030CD005D00485361D
:0A0D63001F7520A38C82C004C00598
:0B0D6D0012030CD005D004D0028068F7
:0A0D7800BD0132ED2536FE8E1F7519
:0C0D820020A48A82C002C004C005C00684
:0C0D8E0012030CD006D005D0048E1F7597
:0C0D9A0020A58C82C004C00512030CD000
:070DA60005D004D0028033E8
:0A0DAD00BD0230ED2536FE8E1F75E5
:0C0DB70020A68A82C002C004C005C0064D
:0C0DC30012030CD006D005D0048E1F7562
:0C0DCF0020A88C82C004C00512030CD0C8
:050DDB0005D004D00268
:040DE0000D020D41B2
:0A0DE4000AE53604FC74022536FD12
:020DEE007E0085
:040DF000EEB53A0022
:090DF4005065EE2AFF85361F75DB
:0C0DFD0020A28F82C002C004C005C00606
:0E0E0900C00712030CD007D006D005D004EEAF
:080E17002537F8E43538F9AB8A
:0C0E1F0039888289838BF0120FD924E0FF
:0A0E2B00F5208C1F8F82C004C00563
:0E0E3500C006C00712030CD007D006D0058DF2
:0A0E43001F7520A78F82C005C006AE
:0E0E4D0012030CD006D005D004D0020E809502
:010E5B002274
:050E5C007A10E4FBFC2C
:0E0E6100E58225E0F582E58333F583EB33FB74
:0A0E6F00EC33FCEB953FF5F0EC9539
:090E7900404006FCABF04382018D
:030E8200DADD2294
:07007200753B01E4F53CF5CC
:030079003DF53E14
:040E8500853B3F85E5
:030E89003C408565
:030E8C003D418560
:0A0E8F003E42904E6D75F0C67441AE
:0E0E9900120F06AA82AB83ACF0FD74392AF565
:090EA7003B74303BF53CE43CF5E2
:060EB0003DE43DF53EAA01
:0A0EB6003DAB3E8A82747F5BF5833A
:010EC000220F
:090EC100AA82AB838A3B8B3C75CD
:060ECA003D00753E002210
:06003700E478FFF6D8FD9D
:080015007900E94400601B7A48
:05001D00009010457881
:03002200FA75A0CC
:0A00250000E493F2A308B8000205FE
:08002F00A0D9F4DAF275A0FF7C
:0E0ED00020F71030F6118883A88220F507F66F
:050EDE00A883758300EC
:010EE30022EC
:030EE400F280F7A2
:020EE700F022F7
:0B0EE900E582853FF0A4C582C0F085C3
:0A0EF40040F0A4D0F025F0C583857E
:080EFE003FF0A42583F58322D7
:0C0F0600AAF0FBE582853FF0A4FCADF0F2
:0C0F1200E583853FF0A42DFDE435F0FEE2
:0C0F1E00E5828540F0A42DFDE5F03EFECC
:0C0F2A00E433FFEA853FF0A42EFEE5F062
:0C0F36003FFFE5838540F0A42EFEE5F0AF
:0C0F42003FFFE5828541F0A42EFEE5F0A3
:0B0F4E003FFFEB853FF0A42FFFEA857A
:0A0F590040F0A42FFFE5838541F06E
:0C0F6300A42FFFE5828542F0A42F8EF041
:050F6F008D838C82223D
:080F7400E53F454060467A01AB
:070F7C00E53F25E0F53FE52C
:090F830040334012F540E582956F
:0A0F8C003FE583954040030A80E62C
:030F9600C3E54070
:070F990013F540E53F13F5DD
:010FA0003F11
:0A0FA100C3E582953FF5F0E5839566
:080FAB00404005F58385F0824A
:070FB300C3E54013F540E522
:060FBA003F13F53FDAE1F0
:010FC000220E
:08003D007800E84400600A7934
:030045000075A0A3
:0600480000E4F309D8FCFE
:08004E0078FAE84400600C7927
:0B00560001900000E4F0A3D8FCD9FAF0
:040FC100AA82AB83D2
:080FC500120FD96003A380F8AC
:0C0FCD00C3E5829AF582E5839BF5832240
:03000800758142BD
:0A000B0012102BE5826003020003CF
:0E0FD90020F71430F6148883A88220F507E66E
:060FE700A88375830022BF
:030FED00E280F7A8
:030FF000E4932265
:020FF300E022FA
:0E0FF500C2D5E58330E70DD2D5E4C39582F571
:0610030082E49583F583F1
:0A100900E54030E70BE4C3953FF526
:051013003FE49540F5EB
:011018004097
:0E101900120F7430D50BE4C39582F582E49576
:0310270083F583CB
:01102A0022A3
:04102B0075820022A8
:00000001FF
